S00B00006176722E73726563D0
S113000037C0000050C000004EC000004CC00000CB
S11300104AC0000048C0000046C0000044C00000C0
S113002042C0000040C000003EC000003CC00000D0
S11300303AC0000038C0000036C0000034C00000E0
S113004032C0000030C000002EC000002CC00000F0
S11300502AC0000028C0000026C0000024C0000000
S113006022C0000020C000001EC000001CC0000010
S113007011241FBECFEFD4E0DEBFCDBF11E0A0E05E
S1130080B1E0EEE7F2E002C005900D92A030B107B6
S1130090D9F721E0A0E0B1E001C01D92A730B2077A
S11300A0E1F70ED0EAC0E7C0CF93DF93CDB7DEB758
S11300B08DE590E0FC0180819181DF91CF910895DD
S11300C0CF93DF9300D0CDB7DEB74FEF61E070E0A0
S11300D081E02DD041E061E080E08BD0C3D08093FB
S11300E006011BC0E1DF9A838983209102013091CC
S11300F0030189819A812817390731F089819A810E
S11301009093030180930201809100019091010179
S11301100196909301018093000180910601813042
S113012009F300000F900F90DF91CF910895CF93C2
S1130130DF9300D000D0CDB7DEB789837B836A8399
S11301404C838981082E000C990B8C5F9E4FFC0117
S11301508081882359F08981082E000C990B8C5FCB
S11301609E4F23E0FC01208383E03CC08A819B8175
S1130170892B71F18C818F3F01F18C81082E000C49
S1130180990B8C5F9E4FFC018081813059F48981E9
S1130190082E000C990B8C5F9E4F21E0FC012083FC
S11301A081E020C08981082E000C990B8C5F9E4F42
S11301B022E0FC01208382E015C08981082E000C16
S11301C0990B8C5F9E4F21E0FC01208381E00AC0E3
S11301D08981082E000C990B8C5F9E4F22E0FC0154
S11301E0208382E00F900F900F900F90DF91CF91BA
S11301F00895CF93DF9300D000D0CDB7DEB78A83C4
S11302006B834C838B81898318C08981082E000CF1
S1130210990B8C5F9E4FFC018081813059F08A815B
S1130220082E000C990B8C5F9E4F22E0FC0120836A
S113023082E011C089818F5F898399818C818917BC
S113024024F78A81082E000C990B8C5F9E4F21E0C5
S1130250FC01208381E00F900F900F900F90DF91AD
S1130260CF910895CF93DF93CDB7DEB7809104018A
S1110270DF91CF910895F894FFCFF894FFCF5B
S9030000FC
